:020000040040BA
:10000000F8EE0120C5234000412440004124400077
:1000100041244000412440004124400000000000F1
:10002000000000000000000000000000412440002B
:1000300041244000000000004124400031074000FE
:10004000412440004124400041244000412440001C
:1000500041244000412440004124400000000000B1
:10006000412440004124400000000000810C400079
:1000700041244000412440004124400041244000EC
:100080000000000000000000E9084000412440009A
:1000900041244000910C4000412440009908400058
:1000A000CD0840004124400041244000412440004C
:1000B00041244000412440004124400041244000AC
:1000C00041244000412440004124400010B5054C2B
:1000D000237833B9044B13B10448AFF300800123F4
:1000E000237010BDF408002000000000E8704000FC
:1000F00008B5064B1BB106480649AFF30080064819
:10010000036813B1054B03B1984708BD0000000018
:10011000E8704000F8080020E8704000000000008F
:1001200082B0034600918DF807309DF90730002B0F
:100130000CDA0C499DF8073003F00F03043B009ADA
:10014000D2B21201D2B20B441A7609E006499DF9E7
:100150000730009AD2B21201D2B20B4483F80023C6
:1001600002B0704700ED00E000E100E000B583B0B0
:100170000190019B013BB3F1807F01D301230FE08C
:10018000094B019A013A5A604FF0FF300F21FFF7F7
:10019000C7FF054B00229A60034B07221A60002319
:1001A000184603B05DF804FB10E000E084B0019055
:1001B0000023039302E0039B01330393039A019B03
:1001C0009A42F8D304B0704708B502F077F801F00E
:1001D000A9FF00F0CFFA00F049FDC04B1A68C04BF0
:1001E000A3FB02135B091846FFF7C0FFBD48FFF7EA
:1001F000DDFFBD4B002242F00A02DA7100221A72C2
:10020000B94A93680A2161F317239360B64B002221
:1002100042F07602DA72002242F002021A73B24A07
:10022000D3684FF4A07161F31723D360AE4B002263
:100230009A70AD4B0F225A70AB4801F095F8AB485D
:10024000FFF7B4FFA84B002242F00A02DA71002245
:100250001A72A54A93684FF4A07161F31723936053
:10026000A14B002242F07602DA72002242F0020232
:100270001A739D4AD3680A2161F31723D3609A4BFE
:1002800000229A70984B0A225A70974801F06CF835
:100290009648FFF78BFF944B002242F04002DA7140
:1002A000002242F001021A728F4A9368AF2161F373
:1002B000172393608C4B002262F02302DA72002233
:1002C0001A73894AD368642161F31723D360864B7C
:1002D00000229A70844B0122DA70834B0D225A70EF
:1002E000814801F029FC8148FFF760FF7E4B002226
:1002F00042F04002DA71002242F001021A727A4A98
:100300009368AF2161F317239360774B002242F08B
:100310003202DA7200221A73734AD368322161F30F
:100320001723D360704B00229A706F4B0122DA7052
:100330006D4B03225A706C4801F0FEFB6B48FFF7CF
:1003400035FF694B002242F00502DA7100221A7271
:10035000654A9368052161F317239360624B00227D
:1003600042F07B02DA72002242F002021A735E4A05
:10037000D36840F23B1161F31723D3605A4B00223C
:100380009A70594B0022DA70574B0E225A70564819
:1003900001F092F95548FFF709FF534B002242F054
:1003A0003202DA7100221A724F4A9368322161F3E5
:1003B000172393604C4B002262F06F02DA72002226
:1003C00042F001021A73484AD368C82161F3172327
:1003D000D360454B00229A70434B0022DA70424BA7
:1003E00004225A70404801F067F94048FFF7DEFEEA
:1003F0003D4B002242F03402DA7100221A723A4A6E
:100400009368342161F317239360374B0022DA722B
:1004100000221A73344AD3686FF31723D360324B28
:1004200061221A71304B00225A712F4B00229A70B0
:100430002D4B0022DA702C4B0F225A702A4801F003
:10044000CBFA294B002242F03C02DA7100221A72E8
:10045000254A9368342161F317239360224B0022CD
:10046000DA7200221A73204AD3686FF31723D3601D
:100470001D4B42221A711C4B01225A711A4B002249
:100480009A70194B0022DA70174B0E225A701648D8
:1004900001F0A2FA144B002242F04402DA71002269
:1004A0001A72114A9368342161F3172393600E4B3B
:1004B0000022DA7200221A730B4AD3686FF31723F3
:1004C000D360094B63221A71074B00225A71064B05
:1004D00000229A70044B0022DA7009E08C000020A0
:1004E0001F85EB51002D310158090020809698009E
:1004F0008D4B0D225A708C4801F06EFA8A4B002207
:1005000042F04C02DA7100221A72874A9368342151
:1005100061F317239360844B0022DA7200221A736E
:10052000814AD3686FF31723D3607F4B44221A713B
:100530007D4B01225A717C4B00229A707A4B00222B
:10054000DA70794B0C225A70774801F045FA764BF5
:10055000002242F05402DA7100221A72724A936841
:10056000342161F3172393606F4B0022DA7200226B
:100570001A736D4AD3686FF31723D3606A4B6522F1
:100580001A71694B00225A71674B00229A70664BB0
:100590000022DA70644B0B225A70634801F01CFA97
:1005A000614B002242F05C02DA7100221A725E4A4C
:1005B0009368342161F3172393605B4B0022DA7256
:1005C00000221A73584AD3686FF31723D360564B2F
:1005D00046221A71544B01225A71534B00229A70D1
:1005E000514B0022DA70504B0A225A704E4801F0EB
:1005F000F3F94E48FFF7DAFD4B4B002242F0780248
:10060000DA7100221A72484A9368782161F317233D
:100610009360454B002262F00F02DA7200221A73D7
:10062000414AD368F02161F31723D3603E4B002287
:100630009A703D4B0122DA703B4B05225A703A48C2
:1006400001F03AF83948FFF7B1FD374B002242F08C
:100650003202DA7100221A72334A9368322161F34E
:1006600017239360304B002262F06F02DA7200228F
:1006700042F001021A732C4AD368C82161F3172390
:10068000D360294801F0C2FC274B002242F00A0245
:10069000DA7100221A72244A93680A2161F317233F
:1006A0009360214B002242F07602DA72002242F07F
:1006B00002021A731C4AD3684FF4A07161F3172326
:1006C000D360194B00229A70174B00225A701648BB
:1006D00000F04AFE1548FFF769FD134B002242F077
:1006E0000A02DA7100221A720F4A93684FF4A0715D
:1006F00061F3172393600C4B002242F07602DA720A
:10070000002242F002021A73074AD3680A2161F3F9
:100710001723D360044B00229A70034B00225A70B7
:10072000014800F021FE61E558090020002D31014B
:1007300008B50E4B1B68591C0C4A1160622B13D96B
:100740000A4B00221A600A4B1B68002B05D000F0F0
:1007500021F8074B00221A6006E000F013F8044B62
:100760001B685A1C024B1A6008BD00BF100900200C
:100770001409002008B50248012101F08FFF08BDCF
:100780000000002008B5024802F034F808BD00BFA0
:100790000000002008B5024802F036F808BD00BF8E
:1007A0000000002008B5074802F058F80346002B67
:1007B00003D0044802F028F802E0024802F01AF8D8
:1007C00008BD00BF0000002082B003468DF807304E
:1007D000074B9DF9072052099DF8071001F01F01F2
:1007E000012000FA01F143F8221002B0704700BF67
:1007F00000E100E082B003468DF80730074B9DF919
:10080000072052099DF8071001F01F01012000FA8E
:1008100001F1203243F8221002B0704700E100E0FD
:1008200082B003468DF80730074B9DF90720520927
:100830009DF8071001F01F01012000FA01F160325C
:1008400043F8221002B0704700E100E082B0034696
:1008500000918DF807309DF90730002B0CDA0C4918
:100860009DF8073003F00F03043B009AD2B2120147
:10087000D2B20B441A7609E006499DF90730009A76
:10088000D2B21201D2B20B4483F8002302B07047F7
:1008900000ED00E000E100E082B00A4B1B6A01932A
:1008A000094B1B78DBB2002B0AD04FF080434FF48A
:1008B0008072C3F820214FF080434FF400425A6405
:1008C00002B07047000001401809002082B0044BBC
:1008D0001B6E0193034B01221A7002B0704700BFD8
:1008E000000001401809002082B04FF080431B6CCB
:1008F0000193194B1B889BB201339AB2164B1A8095
:10090000154B1B889BB2B3F5AF7F05D9124B002264
:100910001A80124B00221A704FF080434FF40042AD
:100920009A644FF080434FF40072C3F820214FF0D7
:100930008041094B1B889BB21A4613469B00134407
:100940009B01074A1344C1F808314FF080435022FD
:10095000C3F80C2102B070471A09002018090020C2
:100960007409002008B50248022101F097FE08BD75
:100970000C00002008B51720FFF73CFF1720FFF7F9
:100980004FFF17200021FFF761FF1820FFF732FF0C
:100990001820FFF745FF18200021FFF757FF172009
:1009A000FFF712FF1820FFF70FFF08BD08B5FFF78C
:1009B000D9FF172002F072F9182002F06FF92148D0
:1009C0000021214A01F0A8FF1E4800215E2201F00B
:1009D000D5FF1C4800218D2201F0EEFF19480021AF
:1009E00040F2746202F006F816480121174A01F03D
:1009F00093FF14480121022201F0C0FF1148012198
:100A0000342201F0D9FF0F48012140F2C11201F058
:100A1000F1FF0C48082101F0A7FF0A480021082235
:100A200002F006F807480121082202F001F8054803
:100A3000002102F079F80348012102F075F8FFF770
:100A400099FF08BD0000014000C4060606C4060662
:100A500008B52848042101F021FE274B1B682748D0
:100A60004FF08041122202F047FA2448802102F020
:100A7000DDFB214B1B68214821491A4602F0F8FA98
:100A80001E48012102F06CFB122002F007F94FF022
:100A900080434FF400425A644FF0804002F01CFA49
:100AA0004FF080434FF08042526842F400425A6057
:100AB0004FF08043134AC3F808214FF0804350227F
:100AC000C3F80C214FF0804300221A614FF080439D
:100AD0004FF488125A611220FFF78CFE1220FFF7A4
:100AE0009FFE12200021FFF7B1FE1220FFF76CFEDF
:100AF00008BD00BF240000208C00002068090020F1
:100B000080C3C9017409002084B00023019300232D
:100B100002933AE000238DF8033000238DF8023071
:100B2000002301932AE00023039310E0039A019B22
:100B3000D0181949029A13469B0013449B010344A1
:100B40000B449DF802201A70039B01330393039B0F
:100B5000132BEBD99DF8033001338DF803309DF84A
:100B600003301B018DF802309DF802209DF8033000
:100B700013438DF80230019B14330193019BB3F5AD
:100B8000A07FD0D3029B01330293029BB3F5AF7FCA
:100B9000C0D304B0704700BF7409002084B003467E
:100BA0008DF807309DF8073003F00F038DF80730FC
:100BB0009DF807301B018DF80B309DF80B209DF838
:100BC000073013438DF80B300023039308E0264AC7
:100BD000039B13449DF80B201A70039B013303936E
:100BE000039BB3F5207FF2D3002303930BE01E4A4F
:100BF000039B134403F5DA3340339DF80B201A703E
:100C0000039B01330393039BB3F5207FEFD30123B1
:100C100003930CE01449039A13469B0013449B0171
:100C20000B449DF80B201A70039B01330393039B25
:100C3000B3F5AF7FEED3002303930EE00A49039A86
:100C400013469B0013449B010B4403F27F239DF842
:100C50000B201A70039B01330393039BB3F5AF7F03
:100C6000ECD304B0704700BF7409002008B5092018
:100C7000FFF794FFFFF7ECFEFFF798FE08BD00BFFB
:100C800082B0024BDB6C019302B07047000E0E4045
:100C900082B0024B1B69019302B070470080004094
:100CA00008B50248042101F0F9FC08BD54000020F9
:100CB00008B5FFF7F5FF0E4815214FF0C06202F0AE
:100CC0002FFB0B48002141F2014202F041FB084892
:100CD00002F052FB06480021002202F05DFB0448AE
:100CE000012102F00DFB024802F0FAFA08BD00BF34
:100CF0000080004086B0019001238DF81730019BE1
:100D0000B3F907309BB2ADF81230019BB3F909304B
:100D10009BB2ADF81030904B1B88BDF812209A4260
:100D200005D38D4B9B88BDF812209A4205D900232C
:100D30008DF817309DF817300BE1874B5B88BDF8B5
:100D400010209A4205D3844BDB88BDF810209A42CC
:100D500005D900238DF817309DF81730F9E0019B75
:100D60009B788DF80F30019B5B788DF80E309DF8E5
:100D70000E3003F00F038DF80E30BDF81020BDF8D3
:100D800012305B089BB21846744913469B0013440B
:100D90009B0103440B441B788DF81530BDF81230CD
:100DA00003F00103002B49D09DF80F30002B0DD12B
:100DB0009DF8153023F00F038DF815309DF81520A0
:100DC0009DF80E3013438DF815308AE09DF80F30F2
:100DD000012B07D19DF815209DF80E3013438DF897
:100DE00015307EE09DF80F30022B10D19DF81520B4
:100DF0009DF80E301340DBB2DBB203F00F03DAB222
:100E00009DF815301343DBB28DF8153069E09DF87D
:100E10000F30032B0FD19DF8153003F00F03DAB21A
:100E20009DF80E305340DAB29DF815301343DBB213
:100E30008DF8153055E09DF817308AE09DF80F3099
:100E4000002B10D19DF8153003F00F038DF81530ED
:100E50009DF80E301B01DAB29DF815301343DBB25A
:100E60008DF815303DE09DF80F30012B0AD19DF82B
:100E70000E301B01DAB29DF815301343DBB28DF84A
:100E800015302EE09DF80F30022B11D19DF80E3059
:100E90001B01DAB29DF8153023F00F03DBB21340CB
:100EA000DAB29DF815301343DBB28DF8153018E037
:100EB0009DF80F30032B11D19DF80E301B01DAB2D3
:100EC0009DF8153023F00F03DBB25340DAB29DF8E2
:100ED00015301343DBB28DF8153002E09DF8173062
:100EE00037E000238DF816302DE0BDF81020BDF856
:100EF00012305B089BB21846184913469B001344F6
:100F00009B0103440B449DF815201A70BDF8102076
:100F1000BDF812305B089BB21846104913469B007F
:100F200013449B0103440B441B78DBB29DF815204E
:100F30009A4203D100238DF8173008E09DF816304F
:100F400001338DF816309DF81630022BCDD99DF85F
:100F50001730184606B0704784000020740900203E
:100F60002DE9F00785B0019001238DF80F30019B2A
:100F7000B3F90B309AB2019BB3F907309BB212B2AE
:100F80001BB29A4217DD019BB3F90B309BB29AB2A8
:100F9000019BB3F907309BB29BB2D31A9BB2ADF859
:100FA0000A30019BDA791B7A1B0213431B041B14C2
:100FB000ADF80C3016E0019BB3F907309BB29AB242
:100FC000019BB3F90B309BB29BB2D31A9BB2ADF825
:100FD0000A30019BDA7A1B7B1B0213431B041B1490
:100FE000ADF80C30019BB3F909309BB21AB26F4BCC
:100FF0005B889A4208DB019BB3F909309BB21AB2B5
:101000006A4BDB889A4205DD00238DF80F309DF88E
:101010000F30C6E0BDF80C70019BB3F909309BB2EC
:101020001FFA83F9019B9E78019B5D7805F00F0301
:10103000DDB24FF00008ABE04A467B089BB2184691
:101040005B4913469B0013449B0103440B441B78EC
:10105000DCB23B4603F00103002B2DD0002E06D15D
:1010600024F00F03DCB244EA0503DCB25EE0012E9B
:1010700003D144EA0503DCB258E0022E0BD104EAA6
:101080000503DBB2DBB203F00F03DAB2E3B21343C2
:10109000DBB2DCB24AE0032E0BD1E3B203F00F0364
:1010A000DAB2EBB25340DAB2E3B21343DBB2DCB2F2
:1010B0003CE09DF80F3074E0002E0AD104F00F03DD
:1010C000DCB22B461B01DAB2E3B21343DBB2DCB273
:1010D0002CE0012E07D12B461B01DAB2E3B21343F9
:1010E000DBB2DCB222E0022E0DD12B461B01DAB2BC
:1010F000E3B223F00F03DBB21340DAB2E3B21343DF
:10110000DBB2DCB212E0032E0DD12B461B01DAB2AA
:10111000E3B223F00F03DBB25340DAB2E3B213437E
:10112000DBB2DCB202E09DF80F303AE04FF0000A8B
:1011300023E04A467B089BB218461D4913469B0094
:1011400013449B0103440B4422461A704A467B0811
:101150009BB21846164913469B0013449B01034457
:101160000B441B78DBB2A34203D100238DF80F3070
:1011700006E0534601335FFA83FABAF1020FD8D979
:101180003B4601339FB21FFA88F301331FFA83F8FD
:10119000BDF90A200FFA88F39A423FF74DAF9DF848
:1011A0000F30184605B0BDE8F007704784000020F6
:1011B0007409002000B585B00190019BB3F9073098
:1011C0009BB21BB2002B34DB019BB3F907309BB2FF
:1011D0001BB2B3F5207F2CDC019BB3F90B309BB223
:1011E0001BB2002B25DB019BB3F90B309BB21BB26A
:1011F000B3F5207F1DDC019BB3F909309BB21BB214
:10120000002B16DB019BB3F909309BB21BB2B3F57F
:10121000AF7F0EDC019BB3F90D309BB21BB2002BEC
:1012200007DB019BB3F90D309BB21BB2B3F5AF7F67
:1012300005DD01238DF80F309DF80F3007E0019890
:10124000FFF758FD03468DF80F309DF80F30184614
:1012500005B05DF804FB00BF84B00190019BB3F9B9
:1012600007309BB21BB2002B34DB019BB3F9073074
:101270009BB21BB2B3F5207F2CDC019BB3F90B3082
:101280009BB21BB2002B25DB019BB3F90B309BB249
:101290001BB2B3F5207F1DDC019BB3F909309BB273
:1012A0001BB2002B16DB019BB3F909309BB21BB2BA
:1012B000B3F5AF7F0EDC019BB3F90D309BB21BB2CF
:1012C000002B07DB019BB3F90D309BB21BB2B3F5CA
:1012D000AF7F05DD01238DF809309DF809303DE031
:1012E000019BB3F907309BB2ADF80C30019BB3F909
:1012F00009309BB2ADF80A30BDF80A20BDF80C30B9
:101300005B089BB21846174913469B0013449B0188
:1013100003440B441B788DF80F30BDF80C3003F0FC
:101320000103002B06D09DF80F3003F00F038DF85A
:101330000F300AE09DF80F3023F00F038DF80F30C7
:101340009DF80F301B098DF80F30019B9DF80F2081
:101350005A7000238DF809309DF80930184604B002
:10136000704700BF7409002000B589B00190019B4F
:10137000B3F907309BB21BB2002B34DB019BB3F9EE
:1013800007309BB21BB2B3F5207F2CDC019BB3F975
:101390000B309BB21BB2002B25DB019BB3F90B304A
:1013A0009BB21BB2B3F5207F1DDC019BB3F9093062
:1013B0009BB21BB2002B16DB019BB3F909309BB229
:1013C0001BB2B3F5AF7F0EDC019BB3F90D309BB2BE
:1013D0001BB2002B07DB019BB3F90D309BB21BB294
:1013E000B3F5AF7F05DD01238DF81F309DF81F3069
:1013F0005EE1019BB3F90D309AB2019BB3F909305C
:101400009BB212B21BB29A421BD1019BB3F90B30B3
:101410009AB2019BB3F907309BB212B21BB29A4247
:1014200006D10198FFF766FC03468DF81F3005E0F2
:101430000198FFF795FD03468DF81F309DF81F308A
:1014400036E1019BB3F90B309AB2019BB3F9073037
:101450009BB212B21BB29A420EDB019BB3F90B3066
:101460009BB29AB2019BB3F907309BB29BB2D31ADD
:101470009BB2ADF814300DE0019BB3F907309BB27D
:101480009AB2019BB3F90B309BB29BB2D31A9BB2B9
:10149000ADF81430019BB3F90D309AB2019BB3F94A
:1014A00009309BB212B21BB29A420EDB019BB3F918
:1014B0000D309BB29AB2019BB3F909309BB29BB23B
:1014C000D31A9BB2ADF812300DE0019BB3F909308D
:1014D0009BB29AB2019BB3F90D309BB29BB2D31A67
:1014E0009BB2ADF81230019BDA791B7A1B021343D1
:1014F0001B041B14ADF81C30019B5A7A9B7A1B020B
:1015000013431B041B14ADF81A30019BB3F90730C9
:101510009AB2019BB3F90B309BB212B21BB29A4242
:1015200004DD4FF6FF73ADF8183002E00123ADF88B
:101530001830019BB3F909309AB2019BB3F90D3011
:101540009BB212B21BB29A4204DD4FF6FF73ADF8A4
:10155000163002E00123ADF81630BDF91420BDF9B4
:1015600012309A4251DBBDF912305A00BDF91430E5
:10157000D31A03930023ADF80A303FE0019BBDF876
:101580001C20A3F80720019BBDF81A20A3F809200E
:101590000198FFF7AFFB03468DF81F30039B002B2C
:1015A0000EDABDF912305B00039A13440393BDF8C1
:1015B0001C20BDF8183013449BB2ADF81C3018E065
:1015C000BDF91220BDF91430D31A5B00039A1344FD
:1015D0000393BDF81C20BDF8183013449BB2ADF83E
:1015E0001C30BDF81A20BDF8163013449BB2ADF87C
:1015F0001A30BDF80A300133ADF80A30BDF90A20BF
:10160000BDF914309A42B9DD50E0BDF914305A00EA
:10161000BDF91230D31A03930023ADF80A303FE02E
:10162000019BBDF81C20A3F80720019BBDF81A20E0
:10163000A3F809200198FFF75DFB03468DF81F30E2
:10164000039B002B0EDABDF914305B00039A1344A0
:101650000393BDF81A20BDF8163013449BB2ADF8C1
:101660001A3018E0BDF91420BDF91230D31A5B000E
:10167000039A13440393BDF81C20BDF8183013449B
:101680009BB2ADF81C30BDF81A20BDF816301344DB
:101690009BB2ADF81A30BDF80A300133ADF80A300C
:1016A000BDF90A20BDF912309A42B9DD9DF81F300C
:1016B000184609B05DF804FB00B587B00190019BA6
:1016C000B3F907309BB21BB2002B34DB019BB3F99B
:1016D00007309BB21BB2B3F5207F2CDC019BB3F922
:1016E0000B309BB21BB2002B25DB019BB3F90B30F7
:1016F0009BB21BB2B3F5207F1DDC019BB3F909300F
:101700009BB21BB2002B16DB019BB3F909309BB2D5
:101710001BB2B3F5AF7F0EDC019BB3F90D309BB26A
:101720001BB2002B07DB019BB3F90D309BB21BB240
:10173000B3F5AF7F05DD01238DF817309DF8173025
:1017400045E100238DF80B30019BB3F907309BB2C4
:10175000ADF81430019BB3F90B309BB2ADF81230E9
:10176000019BB3F909309BB2ADF81030019BB3F97E
:101770000D309BB2ADF80E30BDF81420BDF812301C
:101780009A4205D0BDF81020BDF80E309A4208D11B
:101790000198FFF7E9FD03468DF817309DF81730E3
:1017A00015E1BDF81020BDF80E309A420BD9BDF8F6
:1017B0001030ADF80830BDF80E30ADF81030BDF87F
:1017C0000830ADF80E30BDF81420BDF812309A4242
:1017D0000BD9BDF81430ADF80830BDF81230ADF8B3
:1017E0001430BDF80830ADF812300023ADF80C30DD
:1017F0002CE0BDF81420BDF80C3013449BB29AB213
:10180000019BA3F80720BDF81020019BA3F8092035
:101810000198FFF76FFA03461A469DF817301343F5
:101820008DF81730BDF80E20019BA3F80920019810
:10183000FFF760FA03461A469DF8173013438DF8F8
:101840001730BDF80C300133ADF80C30BDF8142062
:10185000BDF80C301A44BDF812309A42C9DD00239D
:10186000ADF80C302CE0BDF81020BDF80C3013445E
:101870009BB29AB2019BA3F80920BDF81420019BEA
:10188000A3F807200198FFF735FA03461A469DF89A
:10189000173013438DF81730BDF81220019BA3F8C1
:1018A00007200198FFF726FA03461A469DF81730DD
:1018B00013438DF81730BDF80C300133ADF80C3000
:1018C000BDF81020BDF80C301A44BDF80E309A4215
:1018D000C9DD019BDB78002B72D001238DF80B3022
:1018E000BDF81220BDF81430D31A022B26DCBDF847
:1018F0001230013BADF81230BDF81420019BA3F863
:101900000720BDF81020019BA3F80920BDF8122084
:10191000019BA3F80B20BDF80E20019BA3F80D201E
:101920000198FFF721FD03461A469DF8173013432F
:101930008DF8173000238DF80B3041E0BDF80E20F4
:10194000BDF81030D31A022B26DCBDF80E30013B57
:10195000ADF80E30BDF81420019BA3F80720BDF8A8
:101960001020019BA3F80920BDF81220019BA3F8C9
:101970000B20BDF80E20019BA3F80D200198FFF766
:10198000F3FC03461A469DF8173013438DF81730C1
:1019900000238DF80B3013E0BDF814300133ADF89F
:1019A0001430BDF81230013BADF81230BDF81030E4
:1019B0000133ADF81030BDF80E30013BADF80E30FC
:1019C0009DF80B30002B7FF410AF9DF817301846B0
:1019D00007B05DF804FB00BF00B58BB00190002399
:1019E0008DF8273000238DF82330019BDA791B7A9C
:1019F0001B0213431B041B14ADF82030019B5A7AC1
:101A00009B7A1B0213431B041B14ADF81E300823E2
:101A10008DF81D300823069308238DF81730019B9D
:101A20005B791A46434B53F822300493019B1B7990
:101A3000069A02FB03F30433049A1344039300232E
:101A40008DF8223069E09DF81D308DF826304DE08C
:101A50009DF82630072B03D900238DF8243005E0AC
:101A60009DF82630C3F108038DF8243008238DF843
:101A700025309DF82330039A13441B781A469DF8AD
:101A80002530013B42FA03F303F00103002B13D08E
:101A9000019BBDF82020A3F80720019BBDF81E2064
:101AA000A3F809200198FFF725F903461A469DF887
:101AB000273013438DF82730BDF820300133ADF8BF
:101AC00020309DF82530013B8DF825309DF82520EC
:101AD0009DF824309A42CCD89DF8233001338DF8FC
:101AE00023309DF82630083B8DF826309DF82630AF
:101AF000002BADD1BDF820209DF81D309BB2D31A2C
:101B00009BB2ADF82030BDF81E300133ADF81E3069
:101B10009DF8223001338DF822309DF822209DF867
:101B200017309A428FD39DF8273018460BB05DF8D6
:101B300004FB00BF9865400000B58FB00190002302
:101B40008DF83730019BB3F907309BB21BB2099374
:101B5000019BB3F909309BB21BB20893019BB3F907
:101B60000B309BB21BB20793019BB3F90D309BB2B4
:101B70001BB20693079B079A02FB03F30593069B90
:101B8000069A02FB03F30493059B9B000393049BBB
:101B90009B00029300230C93069B0B93049B59001C
:101BA000069A1346DB079B1A5B000133059A02FB7A
:101BB00003F30B440A93FEE0019BDB78002B77D103
:101BC000099B9AB20C9B9BB213449BB29AB2019BA5
:101BD000A3F80720089B9AB20B9B9BB213449BB2BD
:101BE0009AB2019BA3F809200198FFF783F80346F6
:101BF0001A469DF8373013438DF83730099B9AB257
:101C00000C9B9BB2D31A9BB29AB2019BA3F80720FC
:101C1000089B9AB20B9B9BB213449BB29AB2019B56
:101C2000A3F809200198FFF765F803461A469DF8C6
:101C3000373013438DF83730099B9AB20C9B9BB217
:101C400013449BB29AB2019BA3F80720089B9AB257
:101C50000B9B9BB2D31A9BB29AB2019BA3F80920AB
:101C60000198FFF747F803461A469DF837301343AB
:101C70008DF83730099B9AB20C9B9BB2D31A9BB25A
:101C80009AB2019BA3F80720089B9AB20B9B9BB2C8
:101C9000D31A9BB29AB2019BA3F809200198FFF7CF
:101CA00029F803461A469DF8373013438DF837302C
:101CB0000A9B002B73DB019BDB78002B63D0099B15
:101CC0009AB20C9B9BB2D31A9BB29AB2019BA3F817
:101CD0000720089B9AB20B9B9BB213449BB29AB20B
:101CE000019BA3F80920099B9AB20C9B9BB2134459
:101CF0009BB29AB2019BA3F80B20089B9AB20B9B54
:101D00009BB213449BB29AB2019BA3F80D20019899
:101D1000FFF72AFB03461A469DF8373013438DF828
:101D20003730099B9AB20C9B9BB2D31A9BB29AB2E2
:101D3000019BA3F80720089B9AB20B9B9BB2D31A76
:101D40009BB29AB2019BA3F80920099B9AB20C9B03
:101D50009BB213449BB29AB2019BA3F80B20089B41
:101D60009AB20B9B9BB2D31A9BB29AB2019BA3F877
:101D70000D200198FFF7F8FA03461A469DF8373010
:101D800013438DF837300B9BC3F10103039A02FB19
:101D900003F30A9A13440A930B9B013B0B930C9B8E
:101DA0009B000633049A02FB03F30A9A13440A9336
:101DB0000C9B01330C93049B0C9A02FB03F2059BD2
:101DC0000B9901FB03F39A427FF7F6AE079B0C9346
:101DD00000230B93059B5900079A1346DB079B1AB8
:101DE0005B000133049A02FB03F30B440A93FBE00C
:101DF000019BDB78002B78D1099B9AB20C9B9BB29C
:101E000013449BB29AB2019BA3F80720089B9AB295
:101E10000B9B9BB213449BB29AB2019BA3F809207F
:101E20000198FEF767FF03461A469DF837301343C3
:101E30008DF83730099B9AB20C9B9BB2D31A9BB298
:101E40009AB2019BA3F80720089B9AB20B9B9BB206
:101E500013449BB29AB2019BA3F809200198FEF7A4
:101E600049FF03461A469DF8373013438DF8373043
:101E7000099B9AB20C9B9BB213449BB29AB2019BF2
:101E8000A3F80720089B9AB20B9B9BB2D31A9BB274
:101E90009AB2019BA3F809200198FEF72BFF034695
:101EA0001A469DF8373013438DF83730099B9AB2A4
:101EB0000C9B9BB2D31A9BB29AB2019BA3F807204A
:101EC000089B9AB20B9B9BB2D31A9BB29AB2019B0E
:101ED000A3F809200198FEF70DFF03461A469DF866
:101EE000373013438DF8373063E0099B9AB20C9B6F
:101EF0009BB2D31A9BB29AB2019BA3F80720089B0E
:101F00009AB20B9B9BB213449BB29AB2019BA3F86B
:101F10000920099B9AB20C9B9BB213449BB29AB2C4
:101F2000019BA3F80B20089B9AB20B9B9BB2134416
:101F30009BB29AB2019BA3F80D200198FFF714FA07
:101F400003461A469DF8373013438DF83730099B06
:101F50009AB20C9B9BB2D31A9BB29AB2019BA3F884
:101F60000720089B9AB20B9B9BB2D31A9BB29AB2E2
:101F7000019BA3F80920099B9AB20C9B9BB21344C6
:101F80009BB29AB2019BA3F80B20089B9AB20B9BC1
:101F90009BB2D31A9BB29AB2019BA3F80D20019871
:101FA000FFF7E2F903461A469DF8373013438DF8E0
:101FB00037300A9B002B0BDB0C9BC3F10103029A09
:101FC00002FB03F30A9A13440A930C9B013B0C9304
:101FD0000B9B9B000633059A02FB03F30A9A1344FA
:101FE0000A930B9B01330B93059B0B9A02FB03F2A5
:101FF000049B0C9901FB03F39A427FF7F9AE9DF81D
:10200000373018460FB05DF804FB00BF84B0019074
:10201000019BB3F907309BB21BB2002B34DB019B51
:10202000B3F907309BB21BB2B3F5207F2CDC019BC8
:10203000B3F90B309BB21BB2002B25DB019BB3F92C
:102040000B309BB21BB2B3F5207F1DDC019BB3F9B3
:1020500009309BB21BB2002B16DB019BB3F9093090
:102060009BB21BB2B3F5AF7F0EDC019BB3F90D3011
:102070009BB21BB2002B07DB019BB3F90D309BB267
:102080001BB2B3F5AF7F01DD012346E0019BB3F93D
:1020900007309BB2ADF80E30019BB3F909309BB20B
:1020A000ADF80C30019BB3F90B309BB2ADF80A30A0
:1020B000019BB3F90D309BB2ADF80830BDF80E208E
:1020C000BDF80A309A4208D9154BBDF80E209A8007
:1020D000134BBDF80A201A8007E0114BBDF80E2003
:1020E0001A800F4BBDF80A209A80BDF80C20BDF86D
:1020F00008309A4208D90A4BBDF80C20DA80084B08
:10210000BDF808205A8007E0054BBDF80C205A8026
:10211000034BBDF80820DA800023184604B070474E
:10212000840000205E4B1B6B03F00303032B00F2C3
:102130009C8001A151F823F0492140006921400011
:10214000B9214000B9214000564B5B6903F0800380
:10215000002B04D0544B4FF400421A6086E0524BDF
:102160004FF4FA421A6081E04D4B1B6A03F0807312
:10217000002B03D04C4B4D4A1A601CE04A4B4C4A92
:102180001A60474B1B6A03F07003102B04D0202BFE
:1021900008D0002B0ED00EE0434B1B685A00424B78
:1021A0001A6008E0404B1A6813465B001A443E4B25
:1021B0001A6000E000BF59E0394B1B6A03F08073DE
:1021C000002B03D0384B394A1A601CE0364B384A92
:1021D0001A60334B1B6A03F07003102B04D0202BC2
:1021E00008D0002B0ED00EE02F4B1B685A002E4B50
:1021F0001A6008E02C4B1A6813465B001A442A4BFD
:102200001A6000E000BF264B1B6B03F00303022B98
:1022100015D1234B9A6A274B13401B0C0133224ADA
:10222000126802FB03F2204B1A601F4B1A681C4B0A
:102230009B6ADBB2B2FBF3F21B4B1A6016E0184B41
:10224000DA6A1C4B13401B0C0133174A126802FB5D
:1022500003F2154B1A60144B1A68114BDB6ADBB2A0
:10226000B2FBF3F2104B1A6000E000BF0C4B1B6B8B
:1022700003F07003702B08D10B4B1A680E4BA3FBB5
:1022800002135A08084B1A6009E0074B1A68044BFE
:102290001B6B03F070031B09DA40034B1A60704795
:1022A00000040E4010140E408C000020001BB700EC
:1022B00000093D000000FF07ABAAAAAA394B4FF462
:1022C000A0621A60384B394AC3F8E420364B364ACC
:1022D000126B22F0030242F001021A6300BF324B7C
:1022E0009B6E03F00803002BF9D02F4A2E4B1B6A7C
:1022F00003F080712E4B0B43136200BF2A4B9B6E81
:1023000003F00103002BF9D0274B2A4A1A6200BFC1
:10231000254B9B6E03F48033002BF9D0224B264AC9
:102320009A6200BF204B9B6E03F00203002BF9D092
:102330001D4B1D4A126B22F070021A6300BF1A4B2C
:102340009B6E03F00803002BF9D0174B02221A638F
:1023500000BF154B9B6E03F00803002BF9D0124B06
:1023600040F201129A63104B4FF480721A600E4BC8
:102370004FF470521A610C4B0022C3F800210A4B33
:1023800002221A6400BF084B9B6E03F48073002B7B
:10239000F9D0054B094AC3F8E420094B4FF4004239
:1023A0005A607047000A0E4000040E4000434D5032
:1023B000290F3700210F37010308192001434D5021
:1023C00050140E4000B583B0164B0193164B00938A
:1023D000019A009B9A420CD007E0009B1A1D0092C4
:1023E000019A111D019112681A60009A0F4B9A42CE
:1023F000F3D30F4B009304E0009B1A1D00920022C0
:102400001A60009A0B4B9A42F6D30B4B01930B4B7D
:10241000019A22F07F029A6001F0CCF8FDF7D4FE19
:10242000FEE700BFE870400000000020F408002034
:10243000F4080020F8BE01200000400000ED00E09C
:10244000FEE700BF86B00390029113468DF8073077
:10245000039B029A5A649DF80730002B03D0039B1C
:10246000029A5A6602E0039B029A1A66039B1B6F4C
:102470000593039B1A6F029BD943059B0B401A409F
:10248000039B1A67039B5B6F0593039B5A6F029B29
:10249000D943059B0B401A40039B5A67039B029A42
:1024A0005A6006B0704700BF86B003900291134691
:1024B0008DF80730039B029A5A649DF80730002B71
:1024C00003D0039B029A5A6602E0039B029A1A66A3
:1024D000039B1B6F0593029A059B1A43039B1A6784
:1024E000039B5B6F0593039B5A6F029BD943059B2C
:1024F0000B401A40039B5A67039B029A5A6006B02E
:10250000704700BF86B00390029113468DF80730E4
:10251000039B029A5A649DF80730002B03D0039B5B
:10252000029A5A6602E0039B029A1A66039B1B6F8B
:102530000593039B1A6F029BD943059B0B401A40DE
:10254000039B1A67039B5B6F0593029A059B1A43D3
:10255000039B5A67039B029A5A6006B0704700BFFC
:1025600086B00390029113468DF80730039B029AC0
:102570005A649DF80730002B03D0039B029A5A66D9
:1025800002E0039B029A1A66039B1B6F0593029A53
:10259000059B1A43039B1A67039B5B6F0593029A83
:1025A000059B1A43039B5A67039B029A5A6006B025
:1025B000704700BF84B00390029113468DF8073036
:1025C000039B029A5A649DF8073003F00103002B25
:1025D00003D0039B029A5A6602E0039B029A1A6692
:1025E0009DF8073003F00A03002B03D0039B029AE7
:1025F0001A6202E0039B029A5A629DF8073003F0C8
:102600000203002B04D0039B029AC3F8802009E048
:102610009DF8073003F00803002B03D0039B029AB8
:10262000C3F88420039B029A5A61039B029A1A60A2
:1026300004B0704784B0039002918DF807208DF8A4
:102640000630039B029A5A649DF81030002B03D089
:10265000039B029A5A6602E0039B029A1A669DF84F
:102660000630002B03D0039B029A1A6502E0039BFD
:10267000029A5A659DF80730002B03D0039B029AFB
:102680001A6302E0039B029A5A63039B029A1A613F
:10269000039B029A1A6004B0704700BF10B584B063
:1026A000039002919DE0039B5B7A062B00F29180E0
:1026B00001A252F823F000BFD5264000FB264000BF
:1026C00021274000472740006D2740008F2740000A
:1026D0008F274000039B5968039B1A68039B9B7AD2
:1026E00003F00103002B0CBF00230123DBB20846DB
:1026F00011461A46FFF7A6FE6DE0039B5968039B3F
:102700001A68039B9B7A03F00103002B0CBF002384
:102710000123DBB2084611461A46FFF7C5FE5AE010
:10272000039B5968039B1A68039B9B7A03F0010380
:10273000002B0CBF00230123DBB2084611461A46CA
:10274000FFF7E0FE47E0039B5968039B1A68039B71
:102750009B7A03F00103002B0CBF00230123DBB2A3
:10276000084611461A46FFF7FBFE34E0039B1B7A2E
:10277000184600F093FA039B5968039B1A68039B61
:102780009B7A084611461A46FFF714FF23E0039B85
:102790005868039B1968039B5B7A062B14BF0023C0
:1027A0000123DBB21A46039B9B7A03F00403002B40
:1027B0000CBF00230123DBB2039CA47A04F00104C4
:1027C000002C0CBF00240124E4B20094FFF732FF78
:1027D00001E000230AE0039B0C330393029B013BBF
:1027E0000293029B002B7FF45EAF0123184604B0D6
:1027F00010BD00BF82B00190019B5B68019A126816
:102800001A6302B0704700BF82B00190019B5B6801
:10281000019A12685A6302B0704700BF84B00190F9
:10282000019B5B7A052B03D0019B5B7A062B04D1BD
:10283000019B5B689B6B039303E0019B5B68DB6B15
:102840000393019B1A68039B1340002B01D10023C3
:1028500000E00123184604B0704700BF82B0019029
:10286000019B5B689A6B019B1B681340002B01D195
:10287000002300E00123184602B0704784B00190A5
:102880000091019B5B680393019B1A68039BC3F84B
:102890008420009B5B0047F6A672B2FBF3F3013B7A
:1028A000C3F30D02039BC3F88C2004B0704700BF34
:1028B00084B00190019B5B680393039B024AC3F8B9
:1028C000E42004B0704700BF014F495084B001902C
:1028D000019B5B680393039B024AC3F8E42004B0A6
:1028E000704700BF004F495084B00190019B5B6866
:1028F0000393039BD3F8E830184604B0704700BF39
:1029000082B001900B468DF80330019B9DF80320A7
:102910005A7202B0704700BF00B587B003900291B1
:102920000192029B022B05D90C4840210C4A0D4B09
:1029300000F00EFE029B9B01039A13440593059B36
:1029400002221A60059B4FF0FF329A62059B1B6AB8
:10295000059B019A5A6007B05DF804FB986D400032
:10296000586E4000C86D400082B001900091019BFC
:10297000009AC3F8C42002B0704700BF00B585B00C
:10298000039002910192029B022B05D907486B210B
:10299000074A084B00F0DCFD039A029B9B0113449D
:1029A0001033019A5A6005B05DF804FB986D400041
:1029B000686E4000106E400000B585B00390029133
:1029C0000192029B022B05D907487B21074A084B3D
:1029D00000F0BEFD039A029B9B0113441833019A39
:1029E0001A6005B05DF804FB986D4000746E4000FD
:1029F000106E400000B585B0039002910192029BD9
:102A0000022B05D907488B21074A084B00F0A0FD8F
:102A1000039A029B9B0113441833019A5A6005B034
:102A20005DF804FB986D4000806E4000106E400021
:102A300000B587B0039002910192029B022B05D949
:102A400008489D21084A094B00F082FD029B9B012A
:102A5000039A13440593059B019A5A6207B05DF8E7
:102A600004FB00BF986D40008C6E4000106E40006B
:102A700000B587B0039002910192029B022B05D909
:102A80000848B021084A094B00F062FD029B9B01F7
:102A9000039A13440593059B019A9A6207B05DF867
:102AA00004FB00BF986D4000A06E4000106E400017
:102AB00000B585B001900091009B022B05D9084814
:102AC000C321084A084B00F043FD009B9B01019A7B
:102AD00013440393039BDB6A184605B05DF804FBBF
:102AE000986D4000B46E4000106E400000B585B097
:102AF00001900091009B022B05D90848D621084A75
:102B0000084B00F025FD009B9B01019A13440393A1
:102B1000039B1B6A184605B05DF804FB986D4000E6
:102B2000C86E4000106E400000B585B00190009165
:102B3000009B022B05D90848E921084A084B00F000
:102B400007FD009B9B01019A13440393039B0522FD
:102B50001A6005B05DF804FB986D4000D86E400027
:102B6000C86D400000B585B001900091009B022B1C
:102B700005D90848FB21084A084B00F0E9FC009BF6
:102B80009B01019A13440393039B02221A6005B030
:102B90005DF804FB986D4000E46E4000C86D400095
:102BA0008AB00390029101920093002309930223BB
:102BB00004930823059320230693802307930A9BFD
:102BC000DB0B089307E0099B01330993099B052B55
:102BD00001D1002333E0099B9B000AAA134453F858
:102BE000183C029AB2FBF3F31A0C039B9A42EAD800
:102BF00010E0099B01339B000AAA134453F8183CC8
:102C0000029AB2FBF3F2039B9A4200D205E0099BC1
:102C100001330993099B032BEBD9019B002B07D0B0
:102C2000099B9B000AAA134453F8182C019B1A60B5
:102C3000009B002B02D0009B099A1A6001231846C2
:102C40000AB0704782B001900091009B002B04D025
:102C5000019B054AC3F8E42003E0019B034AC3F843
:102C6000E42002B0704700BF014D4954004D495463
:102C700082B00190019B002B04D0054B054AC3F89C
:102C8000E42003E0024B044AC3F8E42002B070479A
:102C900000040E4001434D5000434D5000B583B039
:102CA0000190019B222B05D91F4851211F4A204B1F
:102CB00000F04EFC1F4B204AC3F8E420019B1F2B61
:102CC00013D81C4B9A69019B012101FA03F31A40A6
:102CD000019B012101FA03F39A421ED0154B019A80
:102CE000012101FA02F21A6117E0019B203B0193D6
:102CF000104BD3F80821019B012101FA03F31A407C
:102D0000019B012101FA03F39A4206D0094B019A73
:102D1000012101FA02F2C3F80021064B074AC3F869
:102D2000E42003B05DF804FBEC6E40002C6F400023
:102D3000206F400000040E4000434D5001434D50B1
:102D400000B583B00190019B222B05D91F48782143
:102D50001F4A204B00F0FCFB1F4B204AC3F8E42025
:102D6000019B1F2B13D81C4B9A69019B012101FA6F
:102D700003F31A40019B012101FA03F39A421ED189
:102D8000154B019A012101FA02F25A6117E0019BE9
:102D9000203B0193104BD3F80821019B012101FA3C
:102DA00003F31A40019B012101FA03F39A4206D171
:102DB000094B019A012101FA02F2C3F80421064BE2
:102DC000074AC3F8E42003B05DF804FBEC6E400052
:102DD000446F4000206F400000040E4000434D50FF
:102DE00001434D50104B114AC3F8E4200E4B6FF0D5
:102DF00003021A6100BF0C4B9B6923F0030313F11C
:102E0000040FF8D1084B4FF0FF32C3F8002100BF88
:102E1000054BD3F80831B3F1FF3FF9D1024B044A17
:102E2000C3F8E420704700BF00040E4000434D503B
:102E300001434D500F4B104AC3F8E4200D4B6FF087
:102E400003025A6100BF0B4B9B6923F00303002B65
:102E5000F9D1084B4FF0FF32C3F8042100BF054BF6
:102E6000D3F80831002BFAD1024B044AC3F8E4200E
:102E7000704700BF00040E4000434D5001434D50C9
:102E800000B583B00190019B222B05D90E48BE21CD
:102E90000E4A0F4B00F05CFB019B1F2B07D80D4B1C
:102EA0009A69019B012101FA03F3134008E0094BE1
:102EB000D3F80821019B203B012101FA03F31340C1
:102EC000184603B05DF804FBEC6E40005C6F4000F8
:102ED000206F400000040E4082B00190019B01224F
:102EE0001A6002B0704700BF82B00190019B0222BD
:102EF0001A6002B0704700BF00B587B0039002911E
:102F0000009313468DF80730039B029A1A60039BC7
:102F10009DF807201A72039B01225A72039B00221C
:102F20005A609DF807301846FFF7B8FE029B8022D2
:102F30001A60029B0A221A60029B4FF0FF329A64C9
:102F4000029B7F229A60029B7F22DA61009B1A0A11
:102F5000104BA3FB02131B099BB2013BADF81630CB
:102F6000BDF8163043F4E0639BB21A46029B5A60E8
:102F7000029B0022DA60029B01221A60029B11224E
:102F80005A659DF807301846FFF7DAFE07B05DF87E
:102F900004FB00BF598B4F0100B58BB001900B466D
:102FA0008DF80330019B1B680993019B002B05D111
:102FB0002B4888212B4A2C4B00F0CAFA019B1B6836
:102FC000002B05D126488921264A284B00F0C0FA5B
:102FD000019B1B7A1846FFF761FE019B1B7A18467E
:102FE000FFF74EFF03468DF823309DF80330002B8A
:102FF00024D0099B5B680793099BDB680693099BB8
:103000009B680593099BDB690493099B5B6D0393A4
:10301000099B80221A600998FFF766FF099B079AAF
:103020005A60099B069ADA60099B059A9A60099B87
:10303000049ADA61099B039A5A6505E0099B80228C
:103040001A600998FFF750FF9DF82330002B04D039
:10305000019B1B7A1846FFF773FE0BB05DF804FB6B
:10306000706F4000E46F4000A86F4000B06F4000F8
:1030700000B589B0039002910192039B1B680693EF
:10308000039B002B05D13148B821314A314B00F068
:103090005FFA069B002B05D12C48B9212C4A2E4BF8
:1030A00000F056FA039B1B7A1846FFF7F7FD039BC7
:1030B0001B7A1846FFF7E4FE03468DF81730069B8F
:1030C0005B6823F0FF030493029B002B21D0019B3C
:1030D0005A08029BB2FBF3F30793019B5A08079B24
:1030E000B2FBF3F2029B9A4202D9079B013307938A
:1030F000079B002B02D0079B013B0793079B23F004
:10310000FF03002B07D01148CF21114A134B00F0C9
:103110001FFA00230793019B5A08079B0133B2FB58
:10312000F3F30293049A079B1A43069B5A609DF897
:103130001730002B04D0039B1B7A1846FFF700FEC4
:10314000029B184609B05DF804FB00BF706F400099
:10315000F06F4000A86F4000C06F4000C86F400093
:1031600000B587B001900B468DF80330019B1B68BA
:10317000039300238DF81330019B002B05D12748C2
:10318000EE21274A274B00F0E3F9019B1B68002B37
:1031900005D12248EF21224A234B00F0D9F9019BA7
:1031A0001B7A1846FFF77AFD019B1B7A1846FFF73A
:1031B00067FE03468DF80B30039B5B6D05939DF80E
:1031C0000330012B04D1059B43F48073059312E077
:1031D0009DF80330002B04D1059B23F480730593E5
:1031E00009E0059B03F48073002B0CBF002301232F
:1031F000DBB28DF81330039B059A5A659DF80B30AE
:10320000002B04D0019B1B7A1846FFF799FD9DF80F
:103210001330184607B05DF804FB00BF706F400024
:1032200000704000A86F4000B06F400000B587B04C
:1032300001900091019B1B680593019B002B06D117
:1032400023484FF48D71234A234B00F081F9019BF1
:103250001B68002B06D11E4840F21B111D4A1F4B54
:1032600000F076F9009B002B08D0009B802B05D046
:10327000009BC02B02D04FF0FF3324E0009B03F0F3
:10328000C0030093019B1B7A1846FFF707FD019BC3
:103290001B7A1846FFF7F4FD03468DF81330059BA3
:1032A000DB6823F0C0030393039A009B1A43059B3A
:1032B000DA609DF81330002B04D0019B1B7A18466E
:1032C000FFF73EFD0023184607B05DF804FB00BF82
:1032D000706F400014704000A86F4000B06F400055
:1032E00082B00190019B01221A6002B0704700BFBA
:1032F00082B00190019B02221A6002B0704700BFA9
:1033000082B001900091019B009A5A6102B070470F
:1033100082B001900091019B009A9A6102B07047BF
:1033200000B585B00390029101920298FFF7B6FCB8
:10333000039B02221A60039B80221A60039B802257
:103340001A60039B019A5A6005B05DF804FB00BF48
:1033500084B0039002910192039B029A0C3201996E
:1033600043F8221004B0704782B00190019B1B69A2
:10337000184602B0704700BF82B0019000BF019BA9
:103380001B6903F00103002BF9D0019B9B689BB2E2
:10339000184602B0704700BF84B0039002911346F4
:1033A000ADF8063000BF039B1B6903F40073002BCC
:1033B000F9D0BDF80620029B012101FA03F3DB439B
:1033C00003F00F031B0413431A46039BDA6000BF8C
:1033D000039B1B6903F00203002BF9D004B0704774
:1033E00082B00190019B1B6903F40073002B0CBF9A
:1033F00000230123DBB2184602B0704782B001906F
:10340000019B4FF48072C3F8202102B0704700BFC7
:1034100082B00190019B4FF40072C3F8202102B0EA
:10342000704700BF82B00190019B0122C3F82021A8
:1034300002B0704782B00190019B0222C3F82021A4
:1034400002B0704784B00390029101920093029AF7
:10345000039BC3F80821039B019AC3F80C21009A2F
:10346000039BC3F81821039B049AC3F81C2104B0E2
:10347000704700BF84B00390029101920093029ABA
:10348000039BC3F80021039B019AC3F80421009A0F
:10349000039BC3F81021039B049AC3F8142104B0C2
:1034A000704700BF84B0039002910192039BD3F850
:1034B0000C31002B0ED1029A039BC3F80821039B09
:1034C000019AC3F80C21039B4FF48072C3F82021AA
:1034D00001230FE0039BD3F81C31002B09D1029A82
:1034E000039BC3F81821039B019AC3F81C210123F5
:1034F00000E00023184604B0704700BF84B003907A
:1035000002910192039BD3F80431002B0DD1029A52
:10351000039BC3F80021039B019AC3F80421039B7A
:103520000122C3F8202101230FE0039BD3F81431BB
:10353000002B09D1029A039BC3F81021039B019A27
:10354000C3F81421012300E00023184604B070479B
:1035500000B50A4C2468054685B0E06852B1084CB5
:103560008DE81200029207491A462B4600F00EF829
:1035700000F0A0FF044C2246F2E700BFB804002090
:103580002470400034704000307040000EB410B51C
:1035900083B005AB064C53F8042B01930146206819
:1035A00000F0B6F803B0BDE8104003B0704700BFAC
:1035B000B804002070B50F4E0F4D761BB61007D023
:1035C000043D0024013455F8043F9847A642F9D140
:1035D0000A4E0B4D761B03F071FDB61008D0043D6A
:1035E0000024013455F8043F9847A642F9D170BD34
:1035F00070BD00BFC8704000C8704000D07040006F
:10360000C8704000F0B4840743D0541E002A3ED056
:10361000CDB2034603E0621E002C38D0144603F8F6
:10362000015B9A07F7D1032C2AD9CDB245EA0525CB
:103630000F2C45EA054515D9A4F110073F0903F100
:10364000100606EB07161A46156055609560D560A2
:103650001032B242F8D104F00F040137032C03EB0F
:1036600007130DD91E462246043A032A46F8045B86
:10367000FAD8221F22F003020432134404F0030498
:103680002CB1C9B21C4403F8011BA342FBD1F0BC0E
:10369000704714460346C6E74B6E2DE9F0479C047D
:1036A0000E46804691462AD59368126802F1080AB0
:1036B0001BB31AE9A000BF0817D0043D002401E0A5
:1036C000A74210D0404655F8041F324601F05CF87E
:1036D000431C04F10104F3D10023C9F80830C9F8F0
:1036E0000430BDE8F087D9F80830A3EB8703C9F8A8
:1036F00008300AF1080A002BDBD10020ECE701F0CA
:10370000BDF90023C9F80830C9F80430BDE8F087D6
:103710002DE9F04FB1B01C460291904608930690F7
:1037200018B1836B002B00F0E880029DAB899AB240
:10373000900407D46A6E43F4005322F40051AB8125
:103740009AB26966110740F1B780DDF808B0DBF87E
:103750001030002B00F0B08002F01A020A2A00F0AC
:10376000B78000230DF180090A93159314930993F0
:10377000CDF84C904E4698F80030002B00F0C484F1
:10378000252B00F0C18408F1010201E0252B04D0B3
:10379000144601322378002BF8D1C8EB040595B10B
:1037A000149B159AC6F8008001332A44072B7560D4
:1037B000159214937BDD002A40F0D484099814926A
:1037C00028444E4609902378002B00F0E98300211D
:1037D0004FF000024FF0FF3C63788DF847200491D2
:1037E0008A4604F101080846654608F10108A3F17C
:1037F0002002582A00F2D582DFE812F0C702D30275
:10380000D302CE02D302D302D302D302D302D30215
:103810007E028B02D30284008F02D3022B0194011B
:1038200094019401940194019401940194019401F0
:10383000D302D302D302D302D302D302D302D302E0
:10384000D302D3023001D302D302D302D302D30274
:10385000D302D302D302D302D3027901D302D3021B
:10386000D302D302D302A201D302D302BD01D302F9
:10387000D302D302D302D302D302D302D302D302A0
:10388000D302E201F801D302D302D3021402F801F9
:10389000D302D3021902D3022602890064027902FC
:1038A000D3023802D3021901D302D302AB02083685
:1038B00009982844099086E70698029900F08EFD41
:1038C000B0B9029DAA8902F01A020A2A7FF449AF10
:1038D000DDF808B0BBF90E30002BFFF642AF0698BA
:1038E00059464246234600F03DFD31B0BDE8F08F19
:1038F0004FF0FF3031B0BDE8F08F00F0AFFE14E7BD
:10390000404208934AF0040A98F800306DE71AF034
:1039100020030490AC4600F0F280DDF820B00BF1FB
:10392000070323F0070303F108040894D3E90045D3
:1039300000234FF0000000218DF84700CDF814C09F
:103940000791BCF1000FA8BF2AF0800A54EA0502D3
:1039500040F0AD80BCF1000F40F0A980002B40F09A
:10396000BC831AF0010F00F0B88330AF302307F8A2
:10397000413DC7EB09040594DDF814B0079CE3450D
:10398000B8BFE346CDF80CB01CB10BF1010BCDF87C
:103990000CB01AF00205079505D0DDF80CB00BF15C
:1039A000020BCDF80CB01AF084030B9340F0178291
:1039B000049DDDF80CB0CBEB0504002C40F30F8226
:1039C000102C40F38884BD4D159A14982B464FF067
:1039D000100B25466446B4461E4606E0831C0CF1D7
:1039E000080C0846103D102D11DD411C103207292E
:1039F00015928CE840081491F0DD002A40F0E28135
:103A0000103D102D4FF001031046CC46EDDC314641
:103A10006646A4462C460D462244072B1592356077
:103A20007460149300F369830836591CDAE11AF0C4
:103A3000200F0490AC4600F08B80089DEB1D23F016
:103A4000070303F1080BD3E90045CDF820B00123AB
:103A50006FE74AF0800A98F80030C6E64AF0100A8C
:103A60001AF0200F0490AC468DF8471000F0C68085
:103A7000089CE11D21F00701D1E9002308310891DC
:103A800014461D46002A73F10000C0F2CD83BCF13C
:103A9000000F9DF847100791A8BF2AF0800A54EA4A
:103AA0000502CDF814C04FF001033FF453AF012BD2
:103AB00000F01583022B0DF17F0340F048820A9835
:103AC0001946220904F00F0442EA05720F462B0939
:103AD000015D397052EA030B14461D4607F1FF31B0
:103AE000EFD1CDE90E23C7EB0903059344E74AF074
:103AF000100A1AF020030490AC467FF40EAF1AF0BF
:103B0000100240F00F831AF0400300F00B83DDF841
:103B100020B0BBF800400BF1040B13460025CDF894
:103B200020B006E7A3F13002002018F8013B00EBBB
:103B3000800002EB4000A3F13002092AF5D956E6D5
:103B40004AF0100A1AF0200F0490AC467FF475AFCB
:103B50001AF0100F40F0EC821AF0400F00F0E882EB
:103B6000DDF820B0BBF800400BF1040B0025012369
:103B7000CDF820B0DDE6AC461AF0200F504D049091
:103B80008DF847100A9500F0EE80089DEA1D22F09E
:103B90000702D2E9004502F1080BCDF820B01AF077
:103BA000010F00F0A88254EA050B00F0A482302235
:103BB0008DF849304AF0020A8DF848200223B8E611
:103BC000089BDDF820B01B68049001244FF000052D
:103BD0000BF1040B03948DF847508DF85830CDF855
:103BE00020B0059416AF4FF0000CD2E61AF0200F6B
:103BF0000490AC468DF847107FF43AAF1AF0100FDE
:103C000040F0A4821AF0400F00F0A082DDF820B04E
:103C1000BBF900400BF1040BE51722462B46CDF80B
:103C200020B02FE74AF0400A98F80030DDE598F818
:103C3000003042466C2B03BF08F101084AF0200A0D
:103C400053784AF0100AD0E51AF0200F8DF847108B
:103C500000F0F882089C2168099CE5172B46089D16
:103C6000224604350895C1E9002384E5089C0490A8
:103C70002768AC464FF000058DF847500434002FFC
:103C800000F03483BCF1000F3846C0F2088362466E
:103C90000021CDF804C001F0B9FBDDF804C0002814
:103CA00000F03C83C01B6045A8BF60469DF84750AC
:103CB0000590089407954FF0000C5DE6AC7040004D
:103CC0006C704000089A049030238DF8483002F15F
:103CD000040B7823AF488DF84930AC461468CDF812
:103CE00020B04AF0020A00250A90022321E64AF099
:103CF000200A98F8003078E5DDF820B0DBF8000005
:103D000000280BF10403FFF6FBAD089398F8003090
:103D10006BE598F800302B2167E598F800302A2BE6
:103D200008F1010400F00983A3F13002092A98BFC9
:103D3000002500F2FE8214F8013B05EB850502EB3D
:103D40004505A3F13002092AF5D945EAE575A046F3
:103D50004DE5904C04901AF0200FAC460A948DF873
:103D600047107FF412AF1AF0100F40F0E9811AF0FB
:103D7000400F00F0E581DDF820B0BBF800400BF10A
:103D8000040B0025CDF820B009E798F80030002991
:103D90007FF42BAD202128E54AF0010A98F8003085
:103DA00023E504908DF84710002B00F0F9800125E1
:103DB0004FF0000B03958DF858308DF847B00595FE
:103DC00016AF10E70698029913AAFFF765FC0028C2
:103DD00040F0ED801498159A431CCC4602E6149BE3
:103DE000159A591C9DF8470068B101320DF1470042
:103DF000012307291592149186E8090000F36081D8
:103E00000B4608360131079C64B1023212A8022326
:103E100007291592149186E8090000F357810B4693
:103E2000083601310B9D802D00F00181059DC5EB09
:103E30000C04002C2FDD102C574D22DD30464FF0A6
:103E4000100B2E462546069C06E003F1020C0830B6
:103E50000B46103D102D10DD591C1032072915920C
:103E600080E840081491F0DD002A63D1103D102D48
:103E70004FF0010C13464846EEDC2C4661463546B1
:103E8000064622440729159235607460149100F3A8
:103E9000C18008360131059D37602A4407291592F3
:103EA0007560149140F3C180002A40F03081149273
:103EB0004E461AF0040F00F08B80049DDDF80CB024
:103EC000CBEB0504002C40F38380102C40F32282BE
:103ED0001499324DDDF818A0DDF808B0102705E080
:103EE000881C08361946103C102C10DD4B1C103273
:103EF000072B159286E8A0001493F1DD002A7DD1EE
:103F0000103C102C4FF0010011464E46EEDC2244CE
:103F10000728159235607460149059DD002A4FD13E
:103F2000099CDDF80CB0049DAB45ACBF5C44641942
:103F300009945EE02046029913AAFFF7ADFB002822
:103F400035D1149B159A03F1010C484681E7E0082E
:103F500040EA457004F00702E908303250EA010BEC
:103F60001F461A7004460D4603F1FF33EFD11AF0D5
:103F7000010FCDE90C01394600F0B980302A3FF439
:103F8000F8AC1F46C7EB09053023059501F8013C45
:103F9000F2E400BF807040009C704000AC704000B4
:103FA000159B23B10698029913AAFFF775FB029C93
:103FB000A3895B063FF59CAC099831B0BDE8F08F52
:103FC0000698029913AAFFF767FB0028EFD1159A0C
:103FD000099CDDF80CB0049DAB45ACBF5C44641992
:103FE000099432B10698029913AAFFF755FB0028ED
:103FF000DDD1002014904E46FFF7BDBB5046594618
:1040000013AAFFF749FB0028D1D11499159A481C2F
:104010004E4668E7002A40F0FA80059C209701236D
:1040200021941594224614934E46083641E7049D88
:10403000DDF80CB0CBEB0504002C7FF7F7AE102CAD
:10404000A84D40F3748129464FF0100B2546644675
:10405000B4460E4606E0981C0CF1080C0B46103DC9
:10406000102D0FDD591C1032072915928CE84008DD
:104070001491F0DDBAB9103D102D4FF00100134638
:10408000CC46EFDC33466646A4462C461D46224409
:104090000728159235607460149000F3B2800836DA
:1040A000411C0346C2E60698029913AAFFF7F4FAE8
:1040B00000287FF47CAF149B159A581CCC46CEE7A1
:1040C000002A7CD119464E4613469CE6002A40F051
:1040D0008780012113464E46A4E64F464CE4002D4E
:1040E00008BF0A2C49D230AF303407F8414DC7EB36
:1040F0000903059340E402231BE4002A40F0B28048
:10410000134601214E466DE64446FFF75CBB069818
:10411000029913AAFFF7C0FA00287FF448AF159A56
:104120004E46C6E6089D2C6804350895002500E437
:10413000089D2C680435089501230025FFF7F9BB7D
:10414000089D2C6804350895002528E5089DDDF8B4
:1041500020B02C680BF1040BE517CDF820B02246F7
:104160002B468FE40698029913AAFFF795FA0028C8
:104170007FF41DAF4E46FFF79BBB0DF17F0B0396FF
:104180005E46E346204629460A22002301F02EFF20
:1041900030323270204629460A22002301F026FFE1
:1041A00004460D4654EA0500374606F1FF36E9D1CC
:1041B000C7EB0903DC46039E0593FFF7DDBB0698BA
:1041C0000299CDF804C013AAFFF766FADDF804C01F
:1041D00000287FF4ECAE149B159A591C4E4612E64B
:1041E00006980299CDF804C013AAFFF755FADDF836
:1041F00004C000287FF4DBAE149B159A591C4E4670
:1042000010E6002A56D1012113464E460EE60698C6
:10421000029913AAFFF740FA00287FF4C8AE149958
:10422000159A01314E4636E64FF02D0B644265EB90
:1042300045058DF847B0CDF81CB0CDF814C001236A
:10424000FFF77FBB1AF0100F1DD11AF0400F59D0A5
:10425000089DDDF824B02B6804350895A3F800B05C
:10426000FFF789BA06980299CDF804C013AAFFF7A0
:1042700013FADDF804C000287FF499AE149B159A58
:10428000591C4E46AEE5DDF820B0099CDBF8003045
:104290000BF1040BCDF820B01C60FFF76CBA08944A
:1042A00001F07EFC9DF84740059007944FF0000C0C
:1042B000FFF762BB06980299CDF804C013AAFFF776
:1042C000EBF9DDF804C000287FF471AE149B159A59
:1042D000591C4E46AAE5149B159A034D0133FFF76E
:1042E0009BBB00BF9C704000AC704000BCF1060F4F
:1042F00034BF63460623089423EAE37405930394CA
:10430000164F70E4089C099D2368043408941D60CE
:10431000FFF731BA1498124D0130F8E59DF8475077
:10432000CDF814C0079508948446FFF725BB0846CE
:10433000ADE6A0460025FFF75ABADDF820B098F8A0
:104340000130DBF800500BF10402002D0892A0466A
:10435000BFF64BAA4FF0FF35FFF747BA9470400005
:10436000AC7040002DE9F0430C46ADF26C4DB1F855
:104370000C90E769496EB4F80E8019911AAD4FF4AC
:1043800080664FF0000E079729F00209676A0095D2
:104390006946049502960596ADF80C90ADF80E802E
:1043A0000997CDF818E00646FFF7B2F9051E07DBBE
:1043B0003046694600F036F9002818BF4FF0FF3547
:1043C000BDF80C305B0603D5A38943F04003A381FD
:1043D00028460DF26C4DBDE8F08300BF2F4B1B68E3
:1043E00070B506460C4613B19A6B002A36D0A589E3
:1043F000ABB219070CD52269AAB113F001011ED086
:10440000636900215B42A361A160F2B1002070BD2D
:10441000DA063BD55B0725D4226945F00803A38162
:104420009BB2002AE9D103F42071B1F5007FE4D0FA
:104430003046214600F0DEFCA3892269DDE79807BB
:1044400058BF6169A160002AE0D1A3891A06DDD5B1
:1044500043F04003A3814FF0FF3070BD184600F0D9
:10446000FDF8C4E7216B49B104F14003994203D040
:10447000304600F035FAA5890023236325F0240592
:10448000002322696360ADB22260C6E745F04005B3
:10449000092333604FF0FF30A58170BDB8040020C0
:1044A000024B13B1024800F00DB870470000000045
:1044B0005947400008B5062001F012FB012001F029
:1044C00093FD00BF014600200246034601F036BCC2
:1044D0008B899AB22DE9F0410D46110780463CD4F4
:1044E0006A6843F40063002AAB8159DDAC6A002C92
:1044F0004BD09BB203F48052002192B2D8F80060F6
:10450000C8F80010002A4FD02A6D5F0705D56968EA
:104510002B6B521A0BB1EB6BD21A4046E9690023A0
:10452000A047441C4AD0AA892B692B6022F400635F
:104530009BB200226A60DA04AB814CD4296BC8F8C4
:10454000006011B305F14003994202D0404600F0EB
:10455000C7F900202863BDE8F0812E69AEB12C6850
:104560002E6091070CBF6B690023A41BAB600AE0AF
:10457000324623466F6AE9694046B8470028C0EBD7
:104580000404064404DD002CF2DC0020BDE8F081C8
:10459000AB8943F04003AB814FF0FF30BDE8F081C1
:1045A000EA6B002AA2DCF0E701234046E969A04754
:1045B000431C02461ED0AB89AC6AA6E7D8F800308F
:1045C0005BB9A9896B6021F400639BB22A69AB8156
:1045D000DB042A60B2D52865B0E71D2B01D0162B6D
:1045E00019D1AA892B692B6022F400620023AA81C9
:1045F0006B60A3E7D8F80030002BDCD01D2B07D070
:10460000162B05D0AB8943F04003AB81BDE8F081A8
:10461000C8F80060B9E7AB8943F04003AB81BDE85F
:10462000F08100BF10B5044682B008B1836B53B16E
:10463000B1F90C0008B902B010BD204602B0BDE8C7
:104640001040FFF745BF019100F008F80199EFE72E
:10465000014900F09FBB00BF895E40002DE9F04F8B
:10466000846B83B00746002C65D145683348F863F6
:104670000423032107F53B72C7F8E412C7F8E822C8
:10468000C7F8E04205F15C00AB812C606C60AC6067
:104690006C66EC812C616C61AC6121460822FEF7EE
:1046A000B1FFBE68DFF898B0DFF898A0DFF8989007
:1046B000DFF89880ED6101230922C5F820B0C5F824
:1046C00024A0C5F82890C5F82C802146F381B2813A
:1046D00034607460B460746634617461B4610822DB
:1046E00006F15C000193FEF78DFFFD68F661122074
:1046F0000222C6F820B0C6F824A0C6F82890C6F852
:104700002C802146A881EA812C606C60AC606C66CC
:104710002C616C61AC6105F15C000822FEF772FF50
:10472000019BED61C5F820B0C5F824A0C5F828901C
:10473000C5F82C80BB6303B0BDE8F08F5146400044
:104740001D5B4000415B4000795B4000995B40008D
:10475000704700BF704700BF38B5094D094C641B56
:10476000A41018BF05EB840505D0013C55F8043DA5
:104770009847002CF9D1BDE8384002F0A9BC00BF31
:10478000DC704000E07040002DE9F04193890F4655
:10479000990482B01446804606D4526E43F4005306
:1047A00042F40052A381626600F01EFB01283DD056
:1047B0003A46404601A904F15C0301F075FA421C37
:1047C00006462CD0002839D09DF80410002509E0B9
:1047D000236819702368013323600135B5422DD257
:1047E00001ABE95CA368013B002BA360F0DAA2698E
:1047F000934205DB23681970236819780A29EAD1E6
:104800004046224601F0FCF9B0F1FF3358425841CE
:104810000028E2D04FF0FF3002B0BDE8F081A3895C
:1048200043F04003A38102B0BDE8F0817B1EFE2B64
:10483000BED8F9B206468DF80410C7E7384602B074
:10484000BDE8F081F8B5234D0F46044600F020FF87
:10485000AB685E6826F00306F11B01F6EF7121F4E8
:104860007F6121F00F01A1F58057B7F5805F07DB6D
:104870002046002101F0F6F8AB683344984204D09A
:10488000204600F007FF0020F8BD2046794201F0E5
:10489000E9F801300DD0104BAA681968F61B46F0F4
:1048A00001062046C91B5660196000F0F3FE012086
:1048B000F8BD2046002101F0D5F8AB68C21A0F2AD6
:1048C000DEDD064D04492D6842F00102401B5A60AE
:1048D0000860D5E7E00400202C090020EC08002047
:1048E0002DE9F0410D460646002955D000F0D0FED6
:1048F00055F8041CDFF874C121F00103A5F1080488
:10490000E218DCF808005768904227F0030769D0E6
:1049100011F00101576032D00021D0194068C00762
:1049200006D43B44906800294ED0D268C2609060A3
:1049300043F001026260E350E1B9B3F5007F2DD38B
:104940005A0A042A6AD89809383041000CEB810CC5
:104950004649DCF80820624566D0516821F0030121
:104960008B4202D292689445F7D1D368E360A2608B
:104970009C60D4603046BDE8F04100F08BBE55F835
:10498000085C641B0CF10808A06840452B4443D028
:10499000E568C560A860C0E7BDE8F081DB080CEB06
:1049A000C3020125DCF804009168A1609B1005FAA0
:1049B00003F31843E260CCF8040094603046CC6006
:1049C000BDE8F04100F066BE294DA842ADD143F0EC
:1049D0000102CCF81440CCF81040E060A0606260A6
:1049E000E350C7E71F44CB0707D455F8083CE41A47
:1049F0001F44A268E368D3609A601E4B1B6847F0AF
:104A000001029F426260CCF80840B3D31A4B304693
:104A10001968FFF717FFADE701217EE7142A0CD8CC
:104A200002F15B00410091E74B688010012505FA17
:104A300000F003434B60134698E7542A03D8180B41
:104A40006E30410082E7B2F5AA7F03D8D80B7730E9
:104A500041007BE740F254518A4203D8980C7C30E5
:104A6000410073E7FC217E2070E700BFE0040020D6
:104A7000E8040020E8080020280900202DE9F04F74
:104A8000936883B0164681460C462BB38B89190771
:104A900026D5226922B303F0020292B23568002AB9
:104AA0002CD04FF0000ADFF8E8B2D046D84534BF2A
:104AB00043465B4652464846B8F1000F4FD0E16985
:104AC000676AB847002856DDB3681B1A8244C0EBFA
:104AD0000808B360002BE9D1002003B0BDE8F08FD7
:104AE00048462146FFF77AFC002840F04881A38918
:104AF000356803F0020292B2002AD2D113F0010A03
:104B000042D1D046B8F1000F23D09A05A76876D5D8
:104B1000B845C0F0A48013F4906F40F0B2802068D4
:104B2000BB4651465A4600F053FDA2682168D21B8D
:104B300001EB0B03A26023604246B3689B1A9244C8
:104B4000C2EB0808B360002BC6D0A389B8F1000FF0
:104B5000DBD1D5F800A0D5F804800835D2E7D5F828
:104B600000A0D5F804800835A0E748462146FFF7A5
:104B700059FD002859D0A38943F040034FF0FF307E
:104B8000A38103B0BDE8F08F924601929346904610
:104B9000B8F1000F2BD0019F002F64D0206821694D
:104BA000D4F808C06269C24534BF534643468842C0
:104BB0001F4603D99444634500F3AE80934236DB2D
:104BC0001346676AE16948465A46B847071ED2DD70
:104BD000BAEB070A3AD0B368DB1BBB44C7EB080843
:104BE000B360002B3FF478AFB8F1000FD3D10027AA
:104BF000D5F800B0D5F8048001970835C8E72068DB
:104C00002369984202D86369984572D2B84538BF83
:104C100047463A46514600F0DBFCA3682268DB1B9E
:104C20003A44A3602260002B9FD03A4685E71A469B
:104C30005946009300F0CCFC009BA1682268C91A79
:104C4000BAEB070A1344A1602360C4D14846214649
:104C5000FFF7E8FC00288ED1CDF804A0BBE7206860
:104C60004746C3465DE758460A21424600F0CEFB60
:104C700000287FD000F1010A0127CBEB0A0A019737
:104C80008CE7226821696769C1EB020C07EB4707D3
:104C90000CF1010207EBD77742447F10974234BFF3
:104CA00017463A465B054FD511464846CDF800C039
:104CB00000F010F9DDF800C08346002862D062469B
:104CC0002169CDF800C000F0E9FBA289DDF800C041
:104CD00022F4906242F08002A2810BEB0C00CCEB3C
:104CE0000702C4F810B067612060A2604746C3465F
:104CF00017E76FF00042904538BF424692FBF3F24F
:104D000002FB03F3676AE16948465246B847002848
:104D10007FF731AF024610E762465946CDF800C032
:104D200000F056FCDDF800C0236863442360484669
:104D30002146CDF800C0FFF775FCDDF800C0002863
:104D40007FF419AF674643E74846CDF800C000F04E
:104D5000A3FCDDF800C083460028BED14846216987
:104D6000FFF7BEFDA3890C2223F080039BB2C9F894
:104D7000002001E7012708F1010A01970EE74FF033
:104D8000FF30AAE60C23C9F80030A389F4E600BF7F
:104D900000FCFF7F2DE9F04110F5387788461AD0E6
:104DA00000267D68BC68013D0FD4A389012B05F165
:104DB000FF3506D9B4F90E300133204601D0C04783
:104DC00006436B1C04F16804EFD13F68002FE8D163
:104DD0003046BDE8F0813E463046BDE8F08100BF78
:104DE00000487047BC040020014B1868704700BFA2
:104DF000DC040020F0B58B899AB2960791B00C467E
:104E0000054637D4B1F90E10002917DB01AA01F0CD
:104E100043F8002810DB029B03F47043B3F5005104
:104E20004F424F41B3F5004F2CD0A38943F40063A8
:104E3000A3814FF480660BE0A3899AB212F0800F31
:104E400043F40063A38114BF40264FF4806600271B
:104E50002846314600F03EF8A389002829D01B4A95
:104E6000EA6343F08003A381206020616661A7B9F3
:104E700011B0F0BD01F1430301220B600B614A61E7
:104E800011B0F0BD124AA36A9342CED1A3894FF468
:104E900080663343A381E664DAE72846B4F90E104E
:104EA00001F00EF80028E3D0A38943F00103A381A9
:104EB000DEE79A05DCD404F1430243F0020301214A
:104EC000A381226022616161D2E700BF51464000A8
:104ED000795B40002DE9F04F01F10B05162D83B0F1
:104EE000064627D935F0070527D4A94225D83046EC
:104EF00000F0CEFBB5F5FC7F26D2C14F4FEAD50CB2
:104F000007EBCC03DC689C4200F0D2816368E26866
:104F1000A16823F00303234430465D68CA6045F06E
:104F2000010591605D6000F0B5FB0834204603B0D8
:104F3000BDE8F08F1025A942D9D900240C232046C2
:104F4000336003B0BDE8F08F5FEA552C00F08A8033
:104F5000BCF1040F00F260814FEA951C0CF1380C93
:104F60004FEA4C01A64F07EB8101CC68A14205D165
:104F70000CE0002B7ADAE468A14207D0626822F0E4
:104F80000302531B0F2BF4DD0CF1FF3C0CF1010C61
:104F90009B4B3C6903F1080E744500F07E8161680B
:104FA00021F003014A1B0F2A00F36481002AC3F891
:104FB00014E0C3F810E06ADAB1F5007F80F03A81BE
:104FC000C90803EBC1004FEAA1085A688168A160D3
:104FD0004FF0010909FA08F848EA0202E0605A6055
:104FE0008460CC604FEAAC030120984090425BD8CB
:104FF000024206D12CF0030C400002420CF1040CDA
:10500000FAD007EBCC084446E146E3689C4207D15E
:1050100045E1002A80F25681DB689C4200F03F8126
:10502000596821F003014A1B0F2AF2DD1C46D3F810
:105030000CC054F8088F591945F0010942F00105D8
:10504000C3F804903046C8F80CC0CCF808807961E9
:105050003961C1F80CE0C1F808E04D608A5000F0F9
:1050600019FB63E77E214FF03F0C7BE72244E368A6
:105070005068A16840F00105CB60304699605560EA
:1050800000F008FB0834204603B0BDE8F08F21444F
:1050900030464B6843F001034B6000F0FBFA0834E4
:1050A000204603B0BDE8F08FBC68636823F00309B5
:1050B000A94504D3C5EB09030F2B00F39180514B95
:1050C000514A19681368013305EB010A04EB090B17
:1050D00000F061810AF5805A0AF10F0A2AF47F6A0A
:1050E0002AF00F0A30465146019200F0BBFCB0F1A5
:1050F000FF3F8046019A00F00081834500F2FA806C
:10510000DFF810C1DCF80030C3455344CCF8003060
:1051100000F04A8112683C4901321BBFCBEB080BFF
:105120005B44C1F80080CCF8003018F0070300F0B1
:105130001381C3F10802C3F5805390440833C2447D
:10514000CAF30B0ACAEB030A51463046CDF804C035
:1051500000F088FC431CDDF804C000F03581C8EB8A
:105160000002524442F00102DCF80030C7F8088027
:105170005344BC42C8F80420CCF80030DFF894A0B7
:1051800015D0B9F10F0F40F2EA806168A9F10C0265
:1051900022F0070201F0010EA118052042EA0E0ECE
:1051A0000F2AC4F804E04860886000F21181174AB1
:1051B000BC6811688B4288BF1360154A11688B4226
:1051C00088BF1360626822F003029542C5EB0203B8
:1051D00001D80F2B04DC304600F05CFA0024A5E671
:1051E000621943F0010345F0010565603046BA607D
:1051F000536000F04FFA0834204603B0BDE8F08F4A
:10520000E004002028090020EC08002024090020E8
:10521000200900202C090020BCF1140F61D9BCF139
:10522000540F00F28F804FEA153C0CF16E0C4FEAE0
:105230004C0197E64B0A042B58D9142B00F2AE8090
:1052400003F15B02500007EB8000DFF8BC8183684C
:10525000834200F08A805A6822F00302914202D20F
:105260009B689842F7D1D9687A68E160A3608C6046
:10527000DC60B7E6611942F0010745F001056560A1
:10528000304659611961C1F80CE0C1F808E04F607F
:105290008A50083400F0FEF948E65A68A2E609F19F
:1052A000010919F0030F04F108047FF4AEAE2DE0FC
:1052B00004F108036469A34208BF0CF1020C3FF437
:1052C00067AE23E619441C464868DB6854F8082F8B
:1052D00040F001054D603046D3609A6000F0DAF985
:1052E00024E60CF15B0C4FEA4C013BE68A093832AC
:1052F0005000A8E7BC423FF403AFBC68626822F0EC
:10530000030262E7D8F8008098457BD11CF0030FB8
:10531000A8F108030CF1FF3CF4D17B6823EA0003F9
:105320007B60400098423FF6BFAE00283FF4BCAE21
:105330000342CC467FF465AE400003420CF1040CFE
:10534000FAD05EE6BCF5AA7F1AD84FEAD53C0CF13C
:10535000770C4FEA4C0105E64FF48053EFE601234A
:10536000C8F80430444600222FE791100120D8F8F5
:10537000042000FA01F10A43C8F80420194674E732
:1053800040F254539C451BD84FEA954C0CF17C0CD1
:105390004FEA4C01E6E50AF1100AA3E6542B1FD8A8
:1053A0000A0B6E3250004EE7CBF30B0100297FF45D
:1053B000B1AE0AEB0901BA6841F001015160F6E6AD
:1053C000FC214FF07E0CCDE501224FF0000ACBE628
:1053D00004F108013046FFF783FADAF80030E6E618
:1053E000B3F5AA7F03D8CA0B773250002BE740F2FF
:1053F0005452934203D88A0C7C32500023E7FC209D
:105400007E2220E77B688CE7E0040020830770B4ED
:10541000C9B23FD0541E2AB303788B4223D0431C19
:1054200004E0FCB104788C421DD0144613F0030F45
:10543000184604F1FF3203F10103F2D1032C14D812
:10544000651E4CB303788B420DD0421C002302E052
:1054500004788C4207D0AB42104603F1010302F1FD
:105460000102F5D1002070BC704741EA01260346D5
:1054700046EA06461846043302687240A2F1013536
:1054800025EA020212F0803FDAD1043C032C1846D0
:10549000F0D8D5E71446D1E72046E4E7844641EA50
:1054A000000313F003036DD1403A41D351F8043B9C
:1054B00040F8043B51F8043B40F8043B51F8043BEE
:1054C00040F8043B51F8043B40F8043B51F8043BDE
:1054D00040F8043B51F8043B40F8043B51F8043BCE
:1054E00040F8043B51F8043B40F8043B51F8043BBE
:1054F00040F8043B51F8043B40F8043B51F8043BAE
:1055000040F8043B51F8043B40F8043B51F8043B9D
:1055100040F8043B51F8043B40F8043B51F8043B8D
:1055200040F8043B51F8043B40F8043B403ABDD2FC
:10553000303211D351F8043B40F8043B51F8043B9E
:1055400040F8043B51F8043B40F8043B51F8043B5D
:1055500040F8043B103AEDD20C3205D351F8043B2D
:1055600040F8043B043AF9D2043208D0D2071CBFF9
:1055700011F8013B00F8013B01D30B880380604622
:10558000704700BF082A13D38B078DD010F0030398
:105590008AD0C3F10403D21ADB071CBF11F8013B08
:1055A00000F8013B80D331F8023B20F8023B7BE757
:1055B000043AD9D3013A11F8013B00F8013BF9D282
:1055C0000B7803704B7843708B788370604670471C
:1055D0008842F0B410D98C18A0420DD28518531E01
:1055E00042B121462A4611F8014D02F8014D013B16
:1055F0005C1CF8D1F0BC70470F2A3FD940EA010388
:105600009B073FD1A2F110073F0900EB07161036A8
:105610000C46034625681D6065685D60A5689D6051
:10562000E568DD601033B34204F11004F2D17B1C55
:1056300002F00F0C1B01BCF1030F1944034423D9E2
:105640000E461D466446043C56F8047B45F8047B30
:10565000032CF8D8ACF1040424F00304043402F061
:10566000030223442144002AC4D01A4411F8014BF8
:1056700003F8014B9342F9D1F0BC70470346002A6E
:10568000F3D1B7E70346F0E76246002AEDD1B1E770
:10569000704700BF704700BF2DE9F04F0C4683B044
:1056A00090468146002900F0E280FFF7F1FF08F103
:1056B0000B0654F8043C162E23F00305A4F108074A
:1056C0004BD810210E46B0454CD88D4278DADFF821
:1056D00090B3DBF808E07819864500F0CE80426888
:1056E00022F0010C8444DCF804C01CF0010F7AD0D5
:1056F00000221046DB0700F1928054F8083CC3EB0F
:10570000070ADAF8043023F003032B4488B370450A
:1057100000F0ED8002EB030E8E452ADBC368826841
:105720005746D3609A6057F8081FDAF80C30CB6000
:105730002A1F242A996000F22681132A40F2B3809E
:105740002368CAF808306368CAF80C301B2A00F2D4
:10575000308108340AF11003A6E026F00706002E77
:105760003146B0DA0C230020C9F8003003B0BDE8A0
:10577000F08F8B4253DB5746DAF80C1057F8080FBE
:105780002A1F242AC160886000F20981132A40F28E
:1057900004812168CAF808106168CAF80C101B2A35
:1057A00000F21C8108340AF110022168116061685E
:1057B0005160A16891601D46DAF804303C465746B6
:1057C000AA1B0F2A03F0010319D82B433D447B6029
:1057D0006B6843F001036B604846FFF75BFF2046B0
:1057E00003B0BDE8F08F22F0030202EB050C8C45FC
:1057F00080DBC26881686546CA609160E0E7B919DC
:1058000042F001001E430A447E604860536843F042
:105810000103083153604846FFF762F8DCE7414670
:105820004846FFF757FB8046D0B154F8043C23F0BC
:1058300001023A44A0F10801914200F09E802A1F23
:10584000242A50D8132A23D8034622461168196007
:105850005168596092689A6021464846FFF740F8BF
:105860004846FFF717FF404603B0BDE8F08F1146EA
:1058700003B0BDE8F04FFFF72DBBDEF8042022F0A7
:105880000302501906F1100C604519DA704631E731
:1058900023680360636843601B2A63D800F1080330
:1058A00004F10802D2E73B4622681A6062685A6037
:1058B000A2689A603C467546DAF8043057467FE79E
:1058C0003744831B43F00103CBF808707B6054F826
:1058D000043C03F001031E43484644F8046CFFF700
:1058E000D9FE20467CE72146FFF772FEB4E702EBC3
:1058F000030C06F110029445FFF63BAF5746DAF869
:105900000C3057F8081F2A1F242ACB60996000F238
:105910008780132A78D92368CAF808306368CAF8E0
:105920000C301B2A00F2858008340AF1100322682B
:105930001A6062685A60A2689A600AEB0603C6EBB6
:105940000C0242F00102CBF808305A60DAF8043059
:1059500003F001031E434846CAF80460FFF79AFEAD
:1059600038463DE7A3688360E368C360242A2CD0EF
:1059700000F1100304F1100268E750F8042C22F043
:10598000030215441CE72146384675463C46FFF79E
:105990001FFE5746DAF8043012E73A4605E721467B
:1059A00038461D463C46FFF713FE5746DAF80430EA
:1059B00006E7A368CAF81030E368CAF81430242A4E
:1059C00018D010340AF118036EE723690361636984
:1059D000436104F1180200F1180337E7A168CAF81F
:1059E0001010E168CAF81410242A0FD010340AF1FC
:1059F0001802DAE62369CAF818306369CAF81C305D
:105A000018340AF120034FE73B4690E72269CAF8B1
:105A100018206269CAF81C2018340AF12002C4E672
:105A200021463846CDF804C0FFF7D2FDDDF804C0AA
:105A300083E7A368CAF81030E368CAF81430242A50
:105A400003D010340AF1180371E72369CAF818303B
:105A50006369CAF81C3018340AF1200367E700BFF5
:105A6000E004002038B5074C0023054608462360B3
:105A700000F098FA431C00D038BD2368002BFBD0FF
:105A80002B6038BDF4BE01201F2938B50C460546F1
:105A900020D8D0F8DC229AB152F8213083B1012B02
:105AA0000CD0591C06D00025204642F824509847B7
:105AB000284638BD16230360012038BD002038BDBC
:105AC000284600F029F8224601462846BDE838401D
:105AD00000F00EB8162303604FF0FF3038BD00BF52
